{
  "address": "0xe7f1725E7734CE288F8367e1Bb143E90bb3F0512",
  "abi": [
    {
      "inputs": [
        {
          "internalType": "address",
          "name": "priceFeedAddress",
          "type": "address"
        }
      ],
      "stateMutability": "nonpayable",
      "type": "constructor"
    },
    {
      "inputs": [],
      "name": "FundMe__notOwner",
      "type": "error"
    },
    {
      "stateMutability": "payable",
      "type": "fallback"
    },
    {
      "inputs": [],
      "name": "cheaperWithdraw",
      "outputs": [],
      "stateMutability": "nonpayable",
      "type": "function"
    },
    {
      "inputs": [],
      "name": "fund",
      "outputs": [],
      "stateMutability": "payable",
      "type": "function"
    },
    {
      "inputs": [
        {
          "internalType": "address",
          "name": "funder",
          "type": "address"
        }
      ],
      "name": "getAddressToAmmountFunded",
      "outputs": [
        {
          "internalType": "uint256",
          "name": "",
          "type": "uint256"
        }
      ],
      "stateMutability": "view",
      "type": "function"
    },
    {
      "inputs": [
        {
          "internalType": "uint256",
          "name": "index",
          "type": "uint256"
        }
      ],
      "name": "getFunder",
      "outputs": [
        {
          "internalType": "address",
          "name": "",
          "type": "address"
        }
      ],
      "stateMutability": "view",
      "type": "function"
    },
    {
      "inputs": [],
      "name": "getOwner",
      "outputs": [
        {
          "internalType": "address",
          "name": "",
          "type": "address"
        }
      ],
      "stateMutability": "view",
      "type": "function"
    },
    {
      "inputs": [],
      "name": "getPriceFeed",
      "outputs": [
        {
          "internalType": "contract AggregatorV3Interface",
          "name": "",
          "type": "address"
        }
      ],
      "stateMutability": "view",
      "type": "function"
    },
    {
      "inputs": [],
      "name": "minimumUsd",
      "outputs": [
        {
          "internalType": "uint256",
          "name": "",
          "type": "uint256"
        }
      ],
      "stateMutability": "view",
      "type": "function"
    },
    {
      "inputs": [],
      "name": "num",
      "outputs": [
        {
          "internalType": "uint256",
          "name": "",
          "type": "uint256"
        }
      ],
      "stateMutability": "view",
      "type": "function"
    },
    {
      "inputs": [],
      "name": "withdraw",
      "outputs": [],
      "stateMutability": "nonpayable",
      "type": "function"
    },
    {
      "stateMutability": "payable",
      "type": "receive"
    }
  ],
  "transactionHash": "0xe25bbb5e7e4997255a328fd52bb78ff023e5bd146e6c97e57a891b59416fa3c2",
  "args": [
    "0x5FbDB2315678afecb367f032d93F642f64180aa3"
  ],
  "numDeployments": 1,
  "solcInputHash": "22d2eb0f8cccffdaaa5860f92e10d3bf",
  "bytecode": "0x60a06040523480156200001157600080fd5b50604051620012f8380380620012f8833981810160405281019062000037919062000120565b3373ffffffffffffffffffffffffffffffffffffffff1660808173ffffffffffffffffffffffffffffffffffffffff1660601b8152505080600160006101000a81548173ffffffffffffffffffffffffffffffffffffffff021916908373ffffffffffffffffffffffffffffffffffffffff1602179055505062000152565b600080fd5b600073ffffffffffffffffffffffffffffffffffffffff82169050919050565b6000620000e882620000bb565b9050919050565b620000fa81620000db565b81146200010657600080fd5b50565b6000815190506200011a81620000ef565b92915050565b600060208284031215620001395762000138620000b6565b5b6000620001498482850162000109565b91505092915050565b60805160601c611172620001866000396000818161033f015281816105d101528181610621015261083c01526111726000f3fe60806040526004361061008a5760003560e01c8063893d20e811610059578063893d20e81461014d5780639e87a5cd14610178578063b60d4288146101a3578063be2693f0146101ad578063d7b4750c146101c457610099565b8063098de820146100a35780633ccfd60b146100ce5780634e70b1dc146100e55780637302606f1461011057610099565b3661009957610097610201565b005b6100a1610201565b005b3480156100af57600080fd5b506100b8610331565b6040516100c59190610ab6565b60405180910390f35b3480156100da57600080fd5b506100e361033d565b005b3480156100f157600080fd5b506100fa61057e565b6040516101079190610ab6565b60405180910390f35b34801561011c57600080fd5b5061013760048036038101906101329190610b34565b610584565b6040516101449190610ab6565b60405180910390f35b34801561015957600080fd5b506101626105cd565b60405161016f9190610b70565b60405180910390f35b34801561018457600080fd5b5061018d6105f5565b60405161019a9190610bea565b60405180910390f35b6101ab610201565b005b3480156101b957600080fd5b506101c261061f565b005b3480156101d057600080fd5b506101eb60048036038101906101e69190610c31565b6108d2565b6040516101f89190610b70565b60405180910390f35b6005600081905550670de0b6b3a7640000610247600160009054906101000a900473ffffffffffffffffffffffffffffffffffffffff163461091a90919063ffffffff16565b1015610288576040517f08c379a000000000000000000000000000000000000000000000000000000000815260040161027f90610cbb565b60405180910390fd5b6002339080600181540180825580915050600190039060005260206000200160009091909190916101000a81548173ffffffffffffffffffffffffffffffffffffffff021916908373ffffffffffffffffffffffffffffffffffffffff16021790555034600360003373ffffffffffffffffffffffffffffffffffffffff1673ffffffffffffffffffffffffffffffffffffffff16815260200190815260200160002081905550565b670de0b6b3a764000081565b7f000000000000000000000000000000000000000000000000000000000000000073ffffffffffffffffffffffffffffffffffffffff163373ffffffffffffffffffffffffffffffffffffffff16146103c2576040517f8186952400000000000000000000000000000000000000000000000000000000815260040160405180910390fd5b60005b60028054905081101561046e576000600282815481106103e8576103e7610cdb565b5b9060005260206000200160009054906101000a900473ffffffffffffffffffffffffffffffffffffffff1690506000600360008373ffffffffffffffffffffffffffffffffffffffff1673ffffffffffffffffffffffffffffffffffffffff1681526020019081526020016000208190555050808061046690610d39565b9150506103c5565b50600067ffffffffffffffff81111561048a57610489610d82565b5b6040519080825280602002602001820160405280156104b85781602001602082028036833780820191505090505b50600290805190602001906104ce9291906109f6565b5060003373ffffffffffffffffffffffffffffffffffffffff16476040516104f590610de2565b60006040518083038185875af1925050503d8060008114610532576040519150601f19603f3d011682016040523d82523d6000602084013e610537565b606091505b505090508061057b576040517f08c379a000000000000000000000000000000000000000000000000000000000815260040161057290610e43565b60405180910390fd5b50565b60005481565b6000600360008373ffffffffffffffffffffffffffffffffffffffff1673ffffffffffffffffffffffffffffffffffffffff168152602001908152602001600020549050919050565b60007f0000000000000000000000000000000000000000000000000000000000000000905090565b6000600160009054906101000a900473ffffffffffffffffffffffffffffffffffffffff16905090565b7f000000000000000000000000000000000000000000000000000000000000000073ffffffffffffffffffffffffffffffffffffffff163373ffffffffffffffffffffffffffffffffffffffff16146106a4576040517f8186952400000000000000000000000000000000000000000000000000000000815260040160405180910390fd5b6000600280548060200260200160405190810160405280929190818152602001828054801561072857602002820191906000526020600020905b8160009054906101000a900473ffffffffffffffffffffffffffffffffffffffff1673ffffffffffffffffffffffffffffffffffffffff16815260200190600101908083116106de575b5050505050905060005b81518110156107d75760006002828154811061075157610750610cdb565b5b9060005260206000200160009054906101000a900473ffffffffffffffffffffffffffffffffffffffff1690506000600360008373ffffffffffffffffffffffffffffffffffffffff1673ffffffffffffffffffffffffffffffffffffffff168152602001908152602001600020819055505080806107cf90610d39565b915050610732565b50600067ffffffffffffffff8111156107f3576107f2610d82565b5b6040519080825280602002602001820160405280156108215781602001602082028036833780820191505090505b50600290805190602001906108379291906109f6565b5060007f000000000000000000000000000000000000000000000000000000000000000073ffffffffffffffffffffffffffffffffffffffff164760405161087e90610de2565b60006040518083038185875af1925050503d80600081146108bb576040519150601f19603f3d011682016040523d82523d6000602084013e6108c0565b606091505b50509050806108ce57600080fd5b5050565b6000600282815481106108e8576108e7610cdb565b5b9060005260206000200160009054906101000a900473ffffffffffffffffffffffffffffffffffffffff169050919050565b60008061092683610956565b90506000670de0b6b3a7640000828661093f9190610e63565b6109499190610eec565b9050809250505092915050565b6000808273ffffffffffffffffffffffffffffffffffffffff1663feaf968c6040518163ffffffff1660e01b815260040160a06040518083038186803b15801561099f57600080fd5b505afa1580156109b3573d6000803e3d6000fd5b505050506040513d601f19601f820116820180604052508101906109d79190610faa565b5050509150506402540be400816109ee9190611025565b915050919050565b828054828255906000526020600020908101928215610a6f579160200282015b82811115610a6e5782518260006101000a81548173ffffffffffffffffffffffffffffffffffffffff021916908373ffffffffffffffffffffffffffffffffffffffff16021790555091602001919060010190610a16565b5b509050610a7c9190610a80565b5090565b5b80821115610a99576000816000905550600101610a81565b5090565b6000819050919050565b610ab081610a9d565b82525050565b6000602082019050610acb6000830184610aa7565b92915050565b600080fd5b600073ffffffffffffffffffffffffffffffffffffffff82169050919050565b6000610b0182610ad6565b9050919050565b610b1181610af6565b8114610b1c57600080fd5b50565b600081359050610b2e81610b08565b92915050565b600060208284031215610b4a57610b49610ad1565b5b6000610b5884828501610b1f565b91505092915050565b610b6a81610af6565b82525050565b6000602082019050610b856000830184610b61565b92915050565b6000819050919050565b6000610bb0610bab610ba684610ad6565b610b8b565b610ad6565b9050919050565b6000610bc282610b95565b9050919050565b6000610bd482610bb7565b9050919050565b610be481610bc9565b82525050565b6000602082019050610bff6000830184610bdb565b92915050565b610c0e81610a9d565b8114610c1957600080fd5b50565b600081359050610c2b81610c05565b92915050565b600060208284031215610c4757610c46610ad1565b5b6000610c5584828501610c1c565b91505092915050565b600082825260208201905092915050565b7f4469646e27742073656e6420656e6f7567680000000000000000000000000000600082015250565b6000610ca5601283610c5e565b9150610cb082610c6f565b602082019050919050565b60006020820190508181036000830152610cd481610c98565b9050919050565b7f4e487b7100000000000000000000000000000000000000000000000000000000600052603260045260246000fd5b7f4e487b7100000000000000000000000000000000000000000000000000000000600052601160045260246000fd5b6000610d4482610a9d565b91507fffffffffffffffffffffffffffffffffffffffffffffffffffffffffffffffff821415610d7757610d76610d0a565b5b600182019050919050565b7f4e487b7100000000000000000000000000000000000000000000000000000000600052604160045260246000fd5b600081905092915050565b50565b6000610dcc600083610db1565b9150610dd782610dbc565b600082019050919050565b6000610ded82610dbf565b9150819050919050565b7f43616c6c204661696c6564000000000000000000000000000000000000000000600082015250565b6000610e2d600b83610c5e565b9150610e3882610df7565b602082019050919050565b60006020820190508181036000830152610e5c81610e20565b9050919050565b6000610e6e82610a9d565b9150610e7983610a9d565b9250817fffffffffffffffffffffffffffffffffffffffffffffffffffffffffffffffff0483118215151615610eb257610eb1610d0a565b5b828202905092915050565b7f4e487b7100000000000000000000000000000000000000000000000000000000600052601260045260246000fd5b6000610ef782610a9d565b9150610f0283610a9d565b925082610f1257610f11610ebd565b5b828204905092915050565b600069ffffffffffffffffffff82169050919050565b610f3c81610f1d565b8114610f4757600080fd5b50565b600081519050610f5981610f33565b92915050565b6000819050919050565b610f7281610f5f565b8114610f7d57600080fd5b50565b600081519050610f8f81610f69565b92915050565b600081519050610fa481610c05565b92915050565b600080600080600060a08688031215610fc657610fc5610ad1565b5b6000610fd488828901610f4a565b9550506020610fe588828901610f80565b9450506040610ff688828901610f95565b935050606061100788828901610f95565b925050608061101888828901610f4a565b9150509295509295909350565b600061103082610f5f565b915061103b83610f5f565b9250827f7fffffffffffffffffffffffffffffffffffffffffffffffffffffffffffffff048211600084136000841316161561107a57611079610d0a565b5b817f800000000000000000000000000000000000000000000000000000000000000005831260008412600084131616156110b7576110b6610d0a565b5b827f800000000000000000000000000000000000000000000000000000000000000005821260008413600084121616156110f4576110f3610d0a565b5b827f7fffffffffffffffffffffffffffffffffffffffffffffffffffffffffffffff058212600084126000841216161561113157611130610d0a565b5b82820290509291505056fea26469706673582212205397c3fd0614a107bce8ed865e3b98d2fd063cc04b25365ebafa01b9052a640c64736f6c63430008080033",
  "devdoc": {
    "author": "Harshit Tripathi",
    "details": "This implements price feeds as our library",
    "kind": "dev",
    "methods": {
      "fund()": {
        "details": "This implements price feeds as our library"
      }
    },
    "title": "A contract for crowd funding",
    "version": 1
  },
  "userdoc": {
    "kind": "user",
    "methods": {
      "fund()": {
        "notice": "This function funds this contract"
      }
    },
    "notice": "This contract is to demo a sample fundme contract",
    "version": 1
  },
  "storageLayout": {
    "storage": [
      {
        "astId": 57,
        "contract": "contracts/FundMe.sol:FundMe",
        "label": "num",
        "offset": 0,
        "slot": "0",
        "type": "t_uint256"
      },
      {
        "astId": 67,
        "contract": "contracts/FundMe.sol:FundMe",
        "label": "s_priceFeed",
        "offset": 0,
        "slot": "1",
        "type": "t_contract(AggregatorV3Interface)45"
      },
      {
        "astId": 70,
        "contract": "contracts/FundMe.sol:FundMe",
        "label": "s_funders",
        "offset": 0,
        "slot": "2",
        "type": "t_array(t_address)dyn_storage"
      },
      {
        "astId": 74,
        "contract": "contracts/FundMe.sol:FundMe",
        "label": "s_addressToAmoutntFunded",
        "offset": 0,
        "slot": "3",
        "type": "t_mapping(t_address,t_uint256)"
      }
    ],
    "types": {
      "t_address": {
        "encoding": "inplace",
        "label": "address",
        "numberOfBytes": "20"
      },
      "t_array(t_address)dyn_storage": {
        "base": "t_address",
        "encoding": "dynamic_array",
        "label": "address[]",
        "numberOfBytes": "32"
      },
      "t_contract(AggregatorV3Interface)45": {
        "encoding": "inplace",
        "label": "contract AggregatorV3Interface",
        "numberOfBytes": "20"
      },
      "t_mapping(t_address,t_uint256)": {
        "encoding": "mapping",
        "key": "t_address",
        "label": "mapping(address => uint256)",
        "numberOfBytes": "32",
        "value": "t_uint256"
      },
      "t_uint256": {
        "encoding": "inplace",
        "label": "uint256",
        "numberOfBytes": "32"
      }
    }
  }
}